:020000040000FA
:060000000A128A1110280B
:10000800FE00030E83120313E3000A08E4007F08CE
:10001800E5000A128A155E2F0A128A111328831224
:100028000313EA01EB01EC01ED01EE01EF0183138B
:10003800C2308400D4300A128A15F8230A128A11B1
:1000480083010A128A11852F83120313230880392A
:10005800A8002808AD002308A8002807A900290837
:10006800B300A21F382839283A2833143308031953
:100078003E283F284E28330A031D432844284C288D
:100088000030A3000030A2000030A1000030A00022
:10009800A21756280030A3000030A2000030A100AB
:1000A8000030A00027088039A8002808AD062708D6
:1000B800A8002807A9002908B200A61F64286528F7
:1000C80066283214320803196A286B287A28320AFB
:1000D800031D6F28702878280030A7000030A6007C
:1000E8000030A5000030A400A61782280030A70021
:1000F8000030A6000030A5000030A4003208031923
:10010800862887288C283308031D8B288C28952857
:100118000030A3000030A2000030A1000030A00091
:10012800882B2008A8002808F00026080A128A153B
:10013800C3240A128A11710883120313B9007008C4
:10014800B8003808A800A901AA01AB012B08B10022
:100158002A08B0002908AF002808AE003908A8000E
:10016800A901AA01AB012B08B7002A08B600290883
:10017800B5002808B4002108A8002808F0002508C0
:100188000A128A15C3240A128A11710883120313EA
:10019800B9007008B8003808A800A901AA01AB0185
:1001A8002808AE07290803110318013E0319DD28A2
:1001B800AF072A0803110318013E0319E428B00702
:1001C8002B0803110318013E0319EB28B10739085E
:1001D800A800A901AA01AB012808B407290803113E
:1001E8000318013E0319F928B5072A080311031853
:1001F800013E03190029B6072B0803110318013E15
:1002080003190729B7072208A8002808F0002408BE
:100218000A128A15C3240A128A1171088312031359
:10022800B9007008B8003808A800A901AA01AB01F4
:100238002808AE07290803110318013E03192529C8
:10024800AF072A0803110318013E03192C29B00728
:100258002B0803110318013E03193329B107390884
:10026800A800A901AA01AB012808B40729080311AD
:100278000318013E03194129B5072A080311031879
:10028800013E03194829B6072B0803110318013E3C
:1002980003194F29B7070830A8000310AE0DAF0D9A
:1002A800B00DB10DA80B51292108A8002808F000AD
:1002B80024080A128A15C3240A128A1171088312A3
:1002C8000313B9007008B8003808A8003908A90055
:1002D800AA01AB012808AE07290803110318013E3B
:1002E80003197729AF072A0803110318013E0319D8
:1002F8007E29B0072B0803110318013E031985292D
:10030800B1072008A8002808F00025080A128A1555
:10031800C3240A128A11710883120313B9007008E2
:10032800B8003808A8003908A900AA01AB012808B4
:10033800AE07290803110318013E0319A429AF07C2
:100348002A0803110318013E0319AB29B0072B082B
:1003580003110318013E0319B229B1070830A80098
:100368000310AE0DAF0DB00DB10DA80BB4292008C8
:10037800A8002808F00024080A128A15C3240A12C3
:100388008A11710883120313B9007008B80038087D
:10039800A8003908A900AA01AB012808AE07290856
:1003A80003110318013E0319DA29AF072A080311BC
:1003B8000318013E0319E129B0072B08031103189C
:1003C800013E0319E829B1072108A8002808F00010
:1003D80026080A128A15C3240A128A117108831280
:1003E8000313B9007008B8003808A8003908A90034
:1003F800AA01AB012808B407290803110318013E14
:100408000319072AB5072A0803110318013E03191F
:100418000E2AB6072B0803110318013E0319152AE3
:10042800B7072208A8002808F00025080A128A152C
:10043800C3240A128A11710883120313B9007008C1
:10044800B8003808A8003908A900AA01AB01280893
:10045800B407290803110318013E0319342AB50704
:100468002A0803110318013E03193B2AB6072B0873
:1004780003110318013E0319422AB7072208A800EE
:100488002808F00026080A128A15C3240A128A11BD
:10049800710883120313B9007008B8003808A8005F
:1004A8003908A900AA01AB0108300310A80DA90D4D
:1004B800AA0DAB0DFF3E031D592A2808B4072908C9
:1004C80003110318013E03196A2AB5072A08031104
:1004D8000318013E0319712AB6072B0803110318E4
:1004E800013E0319782AB7072E08A8002F08A9008B
:1004F8003008AA003108AB0018300310AB0CAA0C66
:10050800A90CA80CFF3E031D812A2808B407290856
:1005180003110318013E0319922AB5072A0803118B
:100528000318013E0319992AB6072B08031103186B
:10053800013E0319A02AB7070830A8000310AE0D22
:10054800AF0DB00DB10DA80BA22A33083207A800D1
:10055800A901A90D2808823EB80029080318013E00
:10056800FF3EB900D42A0130A8000310B40DB50D20
:10057800B60DB70DA80BB92AB11FC32AC42AC52ABC
:1005880034140130A8000310AE0DAF0DB00DB10D3D
:10059800A80BC72AFF30B8070318B90AFF30B907F4
:1005A800B61FD72AD82AB72AB201B11FDC2ADD2AFA
:1005B800F92AFF302E05A800FF302F05A900FF30CB
:1005C8003005AA007F303105AB002B082A04290426
:1005D80028040319F02AF12AF42AB201B20AF92AE6
:1005E800341CF72AF82AF92AF12A32080319FD2AB5
:1005F800FE2A2F2B0130B407003003180130B5074D
:10060800003003180130B607003003180130B7076F
:10061800371C0F2B102B2F2B3408A8003508A900E6
:100628003608AA003708AB000130AC002B0DAB0C24
:10063800AA0CA90CA80CAC0B1A2B2B08B7002A087B
:10064800B6002908B5002808B4000130B807031817
:10065800B90A0030B9073908803AFF0080307F02B4
:10066800031D382BFF303802031C3B2B3C2B472B38
:100678007F3083120313B7008030B6000030B50016
:100688000030B4007C2B831203133908803AFF0032
:1006980080307F02031D522B013038020318552B7E
:1006A800562B622B003083120313B7000030B600BC
:1006B8000030B5000030B400AD017C2B8312031369
:1006C8003808A8002808B300FF30B405FF30B50586
:1006D8007F30B6050030B705331C732B742B752B90
:1006E800B6173308A8000310280CA9002908B7007A
:1006F8002D08A8002808B7043708A3003608A20068
:100708003508A1003408A00008008312031341082B
:100718008039C2004208CB004108C2004207C3002A
:100728004308D200C01F992B9A2B9B2B52145208B6
:1007380003199F2BA02BB02B520A031DA42BA52B0A
:10074800AD2B0030C1000030C0000030BF000030C9
:10075800BE00C017C101B82B0030C1000030C00076
:100768000030BF000030BE003D088039C20042089A
:10077800CB063D08C2004207C3004308D300BC1F94
:10078800C62BC72BC82B531453080319CC2BCD2BBE
:10079800DD2B530A031DD12BD22BDA2B0030BD00E1
:1007A8000030BC000030BB000030BA00BC17BD01EF
:1007B800E52B0030BD000030BC000030BB0000302D
:1007C800BA003D083C043B043A04031DEC2BED2B16
:1007D800062C0030C1000030C0000030BF000030DF
:1007E800BE008030C0047F30C1044B08C2004208FC
:1007F800C1044108BD004008BC003F08BB003E08DA
:10080800BA00652D5208031D0A2C0B2C142C00303D
:10081800BD000030BC000030BB000030BA00652DC0
:100828005208C200C3014308C50053084202C4006D
:10083800031CC50344087F3ECC0045080318013E4D
:10084800003ECD004108CA004008C9003F08C80062
:100858003E08C7000030C1000030C0000030BF00B3
:100868000030BE000030D1000030D0000030CF0092
:100878000030CE00D3018A2C53080319442C452C90
:10088800652C0130C2000310C70DC80DC90DCA0D73
:10089800C20B472C0130C2000310BE0DBF0DC00DA6
:1008A800C10DC20B502CD11F5A2C5B2C5C2C3E1452
:1008B8000130C2000310CE0DCF0DD00DD10DC20BEB
:1008C8005E2C3D084A02031D732C3C084902031D97
:1008D800732C3B084802031D732C3A084702031C7B
:1008E800762C772C862C51173A08C7023B08031C34
:1008F8003B0FC8023C08031C3C0FC9023D08031CFF
:100908003D0FCA020130C2004208D3071A30530211
:10091800031C8F2C902C402C4A0849044804470497
:100928000319972C982CB72C4E14B72C0130C20001
:100938000310BE0DBF0DC00DC10DC20B9C2CD11FE5
:10094800A62CA72CA82C3E140130C2000310CE0DF3
:10095800CF0DD00DD10DC20BAA2CFF30CC07031838
:10096800CD0AFF30CD07C01FBA2CBB2C9A2CD3015F
:10097800D11FBF2CC02CDC2CFF304E05C200FF302D
:100988004F05C300FF305005C4007F305105C50036
:1009980045084404430442040319D32CD42CD72C0F
:1009A800D301D30ADC2C3E1CDA2CDB2CDC2CD42C17
:1009B80053080319E02CE12C122D0130BE0700303A
:1009C80003180130BF07003003180130C00700309A
:1009D80003180130C107411CF22CF32C122D3E08DC
:1009E800C2003F08C3004008C4004108C5000130E8
:1009F800C600450DC50CC40CC30CC20CC60BFD2C9F
:100A08004508C1004408C0004308BF004208BE00B2
:100A18000130CC070318CD0A0030CD074D08803AC5
:100A2800FF0080307F02031D1B2DFF304C02031C8A
:100A38001E2D1F2D2D2DFF3083120313CC000030E7
:100A4800CD000030C1000030C0000030BF000030D1
:100A5800BE00831203134D08803AFF0080307F02E6
:100A6800031D382D01304C0203183B2D3C2D492D18
:100A780083120313CC01CD010030C1000030C00047
:100A88000030BF000030BE00CB01831203134C08B6
:100A9800C2004208D200521C522D532D552DC017AA
:100AA800592D7F30C2004208C0055208C200031009
:100AB800420CC3004308C1004B08C2004208C104ED
:100AC800FD2B080083160313B800AF30B1003108BE
:100AD800B400B42E25303A060319732D742D802DD9
:100AE8003A08B100380884003108831380000130C7
:100AF800B1003108B807B42EB5012E0884000A12D7
:100B08008A1500200A128A112E3A031D8C2D8D2D6C
:100B1800C42D0130B1003108AE07B901B32D8316D9
:100B280003133908B1003108A0000A300A128A11EB
:100B3800E6270A128A1183160313B2003208B90095
:100B48002E0884000A128A1500200A128A11D03E43
:100B5800B1003108B9070130B1003108AE072E08DD
:100B680084000A128A1500200A128A110A128A15AC
:100B780000240A128A110318C22DC32D932DC52DE6
:100B8800B901013083160313AE07FF302E07840026
:100B98000A128A1500200A128A11BA00B100B2019D
:100BA8003208003A0319D92DB42E3108003A031936
:100BB800C62E643A0319E42D0D3A0319E42DB42E18
:100BC8003408840083130008B600840A0008B700BC
:100BD8000230B1003108B407B71FF32DF42DFD2DF5
:100BE8000330B1003108B504B609B709B60A0319CC
:100BF800B70A3908031D012E022E0C2E36083704B9
:100C0800031D072E082E0C2E0130B1003108B9073C
:100C1800BA01BA0A3A08B1003107013E84000A1243
:100C28008A1500200A128A11B2000A128A150020B9
:100C38000A128A11B30033083702031D252E320821
:100C480036020318282E292E2A2E342E0130B10000
:100C58003108BA0705303A06031D332E342E0E2EFE
:100C68003908B100B201B11BB2033208803A803CA6
:100C7800031D402E31083A020318432E442E452EF8
:100C88005F2E831603133908B100B201B11BB203FA
:100C98003208803AB30080303302031D552E3A08DB
:100CA80031020318582E592E5F2E831603133A0863
:100CB800B1003108B9008316031335080339031945
:100CC800662E672EAB2E2D30B1003808840031080F
:100CD800831380000130B1003108B807AB2E0A3009
:100CE800A8000030A9003908B1003107013E84008E
:100CF8000A128A1500200A128A11A0000A128A15FF
:100D080000200A128A11A1003708A3003608A200A1
:100D18000A128A154F250A128A118316031321080D
:100D2800AB002008AA000A128A1513250A128A1194
:100D3800831603132808303EB2003208BA003A0876
:100D4800B100380884003108831380006E2EFF300C
:100D5800B1003108B907390A031DB32EB42E732E1A
:100D68000130AE07FF302E0784000A128A150020D2
:100D78000A128A11B1003108BA003A08031DC52EBB
:100D8800C62E6E2D38088400831380010800F800F1
:100D980078080319D02ED12EE52EF31FD42ED52E88
:100DA800E52E7009FA007109FB007209FC0073094D
:100DB800FD00FA0A0319FB0A0319FC0A0319FD0AC4
:100DC800ED2E7308FD007208FC007108FB00700826
:100DD800FA007308720471047004031DF42EF52ED2
:100DE800FE2E0030F3000030F2000030F100003039
:100DF800F000842F9630F4007408F900102F0130A9
:100E0800F4007408F90701300310FD0CFC0CFB0C0E
:100E1800FA0CFF3E031D082FFE307D05031D152F1C
:100E2800162F032F322F0130F4007408F907013010
:100E3800FA07003003180130FB07003003180130AF
:100E4800FC07003003180130FD0701300310FD0CCA
:100E5800FC0CFB0CFA0CFF3E031D2A2FFF307D050E
:100E6800031D372F382F172F442F0130F902013077
:100E7800F4000310FA0DFB0DFC0DFD0DF40B3D2FD6
:100E8800FC1B472F482F4E2F0230790203184D2F95
:100E98004E2F392F7918512F522F5A2FFF30FA051C
:100EA800FF30FB057F30FC05FF30FD050310F90C12
:100EB8007908F400F501F601F70118300310F40D74
:100EC800F50DF60DF70DFF3E031D622F7408FA04A9
:100ED8007508FB047608FC047708FD0478080319F4
:100EE800762F772F7C2FF31F7A2F7B2F7C2FFD17E0
:100EF8007D08F3007C08F2007B08F1007A08F00016
:100F080008000A128A1595250A128A1183120313FA
:100F18009F188F2F902F9D2F831603134408450485
:100F2800031D972F982F9D2F0A128A1514240A1231
:100F38008A11831203139F18A22FA32FB02F831691
:100F4800031342084304031DAA2FAB2FB02F0A1224
:100F58008A152B240A128A11243083160313BF0022
:100F68003F08AE004808C000C1010310400DAF00A3
:100F7800410DB000C9300A128A1166250A128A1179
:100F88001C3083160313BF003F08AE004708C0009B
:100F9800C1010310400DAF00410DB000CF300A125F
:100FA8008A1166250A128A110A128A15BE260A12A1
:100FB8008A110A128A159F240A128A118A2F0A1284
:100FC8008A11102883160313A300A201231CED2FF6
:100FD800EE2FF22F2008A1002108A2070310A00D70
:100FE8000310A30C2308031DFA2FFB2FEA2F220856
:020FF8000800EF
:1010000008308A000408840A82070034013400345E
:101010000A34003464340034E834033410342734A0
:101020002034203454343A342034203454343A3484
:10103000203420344E3475346C346C343A342034DB
:101040000034423425342E34333469344334253467
:101050000034413425342E3433346934433400347D
:0A10600025342E3433346934003493
:1017C400831203139F161F129F151F110800831203
:1017D40003139F161F169F111F110800831603136E
:1017E400A00020088312031388000800640080010D
:1017F400840A0406031900340406F92B8316031320
:10180400A100A0013A3021020318092C0A2C122C41
:1018140030302102031C0F2C102C122CA001A00A22
:10182400200C0800831203131E0883160313A00060
:101834002008C8000130C4000030C500C201C30143
:101844000A128A15E2230A128A15831203139F14BB
:101854000800831203131E0883160313A000200834
:10186400C700C401C5010130C2000030C3000A1220
:101874008A15E9230A128A15831203139F14080098
:1018840083160313A5002508031D492C4A2C522C4A
:101894002408803E0A128A155F240A128A155E2CD7
:1018A4002503031D562C572C5E2C2408C03E0A1217
:1018B4008A155F240A128A15080083160313A300ED
:1018C4008312031309108316031323080A128A15BB
:1018D400F0230A128A15831203130915063083169E
:1018E4000313A2002F30A100A10B762CA20B762C9F
:1018F4007B2C831203130911080083160313A3001E
:101904008312031309148316031323080A128A1576
:10191400F0230A128A15831203130915063083165D
:101924000313A2002F30A100A10B962CA20B962C1E
:101934009B2C83120313091108001830831203131C
:101944006F020318A62CA72CAA2C071487100711C2
:101954001A306F02031CAF2CB02CB92C23306F0249
:101964000318B52CB62CB92C071087140711253091
:101974006F02031CBE2CBF2CC22C07108710071546
:101984000800F800F401F5017008F200F301720890
:10199400F6007308F700781CD02CD12CD72C7608CD
:1019A400F4070318F50A7708F50701300310F60D5C
:1019B400F70DFF3E031DD82C0310F80C7808031D07
:1019C400E42CE52CCD2C7508F1007408F000080017
:1019D40083160313A600A401A501052D24082607D8
:1019E40084000A128A1500200A128A150A128A151E
:1019F4007F240A128A15013083160313A4070318DF
:101A0400A50A0030A5072408260784000A128A15AF
:101A140000200A128A15003A031D112D122DF02CF4
:101A24000800831603132808290403191A2D1B2DF3
:101A34004A2DAD01AD0A292D01300310A80DA90DC1
:101A4400FF3E031D1F2D0130AC002C08AD07A91F5C
:101A54002C2D2D2D1E2D29082B02031D332D280876
:101A64002A02031C362D372D3D2D2808AA022908E9
:101A7400031CAB03AB0201300310A90CA80CFF3EFE
:101A8400031D3E2D0130AD02031D492D4A2D2D2D80
:101A94002B08A9002A08A800080083160313A5012F
:101AA400A601200821040319582D592D902DA701B2
:101AB400A70A672D01300310A00DA10DFF3E031DE1
:101AC4005D2D0130A4002408A707A11F6A2D6B2DEA
:101AD4005C2D01300310A50DA60DFF3E031D6C2DDA
:101AE40021082302031D782D20082202031C7B2DCC
:101AF4007C2D832D2008A2022108031CA303A3022A
:101B0400251401300310A10CA00CFF3E031D842DED
:101B14000130A702031D8F2D902D6B2D2608A100E7
:101B24002508A000080003308316031788008901E4
:101B34000330831603138500860187018801890118
:101B440083120313850186018701880189018316A5
:101B5400031396018B118B120B178B1761308F00B7
:101B640081128111011181100114063083120313B3
:101B740081000B110A128A15EB250A128A150C3002
:101B84000A128A155F240A128A1583160317091587
:101B94000916831203131F159F111F169F12831614
:101BA40003131F129F129F13831203139F141F14F6
:101BB4008B17831603130C130C17C401C5010130D2
:101BC400C2000030C3000A128A15E9230A128A15DA
:101BD400080000300A128A15F0230A128A151A30F6
:101BE40083160313A500F730A400A40BF72DA50B4F
:101BF400F72DFC2D30300A128A155F240A128A153B
:101C0400073083160313A5007C30A400A40B082E10
:101C1400A50B082E000030300A128A155F240A1220
:101C24008A150F3083160313A5004730A400A40BB4
:101C3400192EA50B192E30300A128A155F240A12A8
:101C44008A1538300A128A155F240A128A15103050
:101C54000A128A155F240A128A1501300A128A159B
:101C64005F240A128A1506300A128A155F240A12A2
:101C74008A150F300A128A155F240A128A15080081
:101C8400031083120313560D570DD8005808DE00B5
:101C94005E08031D4E2E4F2E582E0030D700003004
:101CA400D6000030D5000030D400BD2E5408D80032
:101CB4005508D9005608DA005708DB001F30031016
:101CC400DB0CDA0CD90CD80CFF3E031D612E58082E
:101CD400DC005C08DD00D617FF30D405FF30D505E5
:101CE400FF30D6050030D7059630DE02DE1F7B2E8E
:101CF4007C2E962E5E08803A973E0318822E832E01
:101D0400842E4F2E01300310D70CD60CD50CD40CD6
:101D1400FF3E031D852E0130D8005808DE07031D41
:101D2400942E952E842EAD2E20305E02031C9B2E05
:101D34009C2EA82E4F2E0130D8000310D40DD50DA3
:101D4400D60DD70DD80B9F2E0130DE025E08031D81
:101D5400AC2EAD2E9D2E5D080319B12EB22EBD2ED4
:101D6400D409D509D609D709D40A0319D50A031900
:101D7400D60A0319D70A080083160313A4010030F6
:101D84000A128A1542240A128A150B300A128A157D
:101D9400EA240A128A1583160313A40101300A12D5
:101DA4008A1542240A128A152B3083160313BB00AA
:101DB4003B08AE000030AF00B000BC300A128A11FC
:101DC40066250A128A15831603134A080A128A150D
:101DD4007F240A128A152E300A128A157F240A12C9
:101DE4008A15831603134B080A128A157F240A12D4
:101DF4008A15831603134C080A128A157F240A12C3
:101E04008A15831603134D080A128A157F240A12B1
:101E14008A1520300A128A157F240A128A1583161D
:101E2400031350080A128A157F240A128A152E30C9
:101E34000A128A157F240A128A158316031351087D
:101E44000A128A157F240A128A158316031352086C
:101E54000A128A157F240A128A158316031353085B
:101E64000A128A157F240A128A1520300A128A154A
:101E74007F240A128A15831603133C080A128A1552
:101E84007F240A128A15831603133D080A128A1541
:101E94007F240A128A15831603133E080A128A1530
:101EA4007F240A128A15831603133F080A128A151F
:101EB4007F240A128A1508000C1F612F622FF72F46
:101EC4000C136B080319672F682FE62F1E08DF0019
:101ED4005F0883160313C800480883120313DF0046
:101EE400E001E101E2016208F3006108F200600828
:101EF400F1005F08F00001300A128A11CB260A12A1
:101F04008A15730883120313A7007208A6007108C8
:101F1400A5007008A4004030A300A030A200003047
:101F2400A1000030A0000A128A1128200A128A1582
:101F3400831203132308C1002208C0002108BF0034
:101F44002008BE004330BD007F30BC000030BB0021
:101F54000030BA000A128A1189230A128A158312E0
:101F640003133D08E9003C08E8003B08E7003A0891
:101F7400E6006908A7006808A6006708A5006608C7
:101F8400A4004230A300C830A2000030A1000030F9
:101F9400A0000A128A1128200A128A158312031338
:101FA4002308D7002208D6002108D5002008D40031
:101FB4000A128A1542260A128A1583120313540838
:101FC400DF005F08EF00EC2F1E08DF005F088316B8
:101FD4000313C70083126B080319F12FF32F013089
:101FE400F42F0030DF005F08EB006508FF00640891
:0C1FF4008A00630E8300FE0E7E0E0900C2
:04400E00D420FF3F7C
:00000001FF
