:020000040000FA
:060000000A128A110C280F
:10000800FE00030EF1000A08F2000A128A11072CFA
:100018000A128A110F28F801F901FA0183133D30F9
:10002800840050300A128A11CF240A128A118301DF
:100038000A128A11792A83120313B3002A30AC00FA
:100048002C08AF006D292530350603192C282D28DA
:1000580039283508AC00330884002C088313800045
:100068000130AC002C08B3076D29B00129088400C1
:100078000A128A11AA230A128A112E3A031D452848
:1000880046287D280130AC002C08A907B4016C284B
:10009800831203133408AC002C08F3000A300A1248
:1000A8008A117E240A128A1183120313AD002D08C7
:1000B800B400290884000A128A11AA230A128A1194
:1000C800D03EAC002C08B4070130AC002C08A907BE
:1000D800290884000A128A11AA230A128A110A120C
:1000E8008A11BD240A128A1103187B287C284C28FF
:1000F8007E28B401013083120313A907FF302907B2
:1001080084000A128A11AA230A128A11B500AC00C7
:10011800AD012D08003A031992286D292C08003AE0
:1001280003197F29643A03199D280D3A03199D285C
:100138006D292F08840083130008B100840A000881
:10014800B2000230AC002C08AF07B21FAC28AD28B3
:10015800B6280330AC002C08B004B109B209B10AC2
:100168000319B20A3408031DBA28BB28C528310868
:100178003204031DC028C128C5280130AC002C0852
:10018800B407B501B50A3508AC002C07013E840058
:100198000A128A11AA230A128A11AD000A128A11B8
:1001A800AA230A128A11AE002E083202031DDE2885
:1001B8002D0831020318E128E228E328ED28013050
:1001C800AC002C08B50705303506031DEC28ED28D2
:1001D800C7283408AC00AD01AC1BAD032D08803A2C
:1001E800803C031DF9282C0835020318FC28FD283B
:1001F800FE281829831203133408AC00AD01AC1B88
:10020800AD032D08803AAE0080302E02031D0E2962
:1002180035082C02031811291229182983120313EF
:100228003508AC002C08B4008312031330080339D6
:1002380003191F29202964292D30AC0033088400B4
:100248002C08831380000130AC002C08B307642904
:100258000A30A3000030A4003408AC002C07013E8B
:1002680084000A128A11AA230A128A11F3000A12B8
:100278008A11AA230A128A11F4003208F6003108FA
:10028800F5000A128A1128230A128A1174088312A7
:100298000313A6007308A5000A128A116E230A1216
:1002A8008A11831203132308303EAD002D08B500D0
:1002B8003508AC00330884002C08831380002729F4
:1002C800FF30AC002C08B407340A031D6C296D29D3
:1002D8002C290130A907FF30290784000A128A1146
:1002E800AA230A128A11AC002C08B5003508031D90
:1002F8007E297F292728330884008313800108007A
:10030800F70100300A128A112D240A128A110B30C3
:100318000A128A11DE230A128A11F70101300A1221
:100328008A112D240A128A112A3083120313B60067
:100338003608A9000030AA00AB0037300A128A112B
:100348001F200A128A118312031346080A128A11FF
:100358004A240A128A112E300A128A114A240A12D1
:100368008A118312031347080A128A114A240A12AF
:100378008A118312031348080A128A114A240A129E
:100388008A118312031349080A128A114A240A128D
:100398008A1120300A128A114A240A128A118312F9
:1003A80003134C080A128A114A240A128A112E30A1
:1003B8000A128A114A240A128A11831203134D0859
:1003C8000A128A114A240A128A11831203134E0848
:1003D8000A128A114A240A128A11831203134F0837
:1003E8000A128A114A240A128A1120300A128A1122
:1003F8004A240A128A118312031337080A128A112F
:100408004A240A128A118312031338080A128A111D
:100418004A240A128A118312031339080A128A110C
:100428004A240A128A11831203133A080A128A11FB
:100438004A240A128A110800033083160317880019
:1004480089010330831603138500860180308700F5
:1004580088018901831203138501860187018801B8
:1004680089018316031396018B118B120B178B17B7
:1004780061308F0081128111011181100114063041
:100488008312031381000B110A128A11D1220A1256
:100498008A110C300A128A1164240A128A118316EE
:1004A800031709150916831203131F159F111F1629
:1004B8009F12831603131F129F129F138312031395
:1004C8009F141F148B17831603130C130C17831216
:1004D8000313BF01C0010130BD000030BE000A1285
:1004E8008A11D7240A128A1108000A128A112022B6
:1004F8000A128A11831203139F18832A842A8F2AC7
:100508003F084004031D892A8A2A8F2A0A128A1161
:10051800A8240A128A11831203139F18942A952A71
:10052800A02A3D083E04031D9A2A9B2AA02A0A12E3
:100538008A1193240A128A111C3083120313BA00F9
:100548003A08A9004408BB00BC0103103B0DAA00EF
:100558003C0DAB0045300A128A111F200A128A117D
:10056800233083120313BA003A08A9004308BB00DA
:10057800BC0103103B0DAA003C0DAB004B300A1226
:100588008A111F200A128A110A128A1184210A125A
:100598008A117E2A0A128A110C2800300A128A113E
:1005A800E5240A128A111A3083120313A100F730C6
:1005B800A000A00BDD2AA10BDD2AE22A30300A12A6
:1005C8008A1164240A128A11073083120313A100C6
:1005D8007C30A000A00BEE2AA10BEE2A00003030E0
:1005E8000A128A1164240A128A110F308312031323
:1005F800A1004730A000A00BFF2AA10BFF2A303032
:100608000A128A1164240A128A1138300A128A11CD
:1006180064240A128A1110300A128A1164240A12F8
:100628008A1101300A128A1164240A128A110630CA
:100638000A128A1164240A128A110F300A128A11C6
:1006480064240A128A11080083120313A101A2016B
:10065800730874040319312B322B692BA001A00AEB
:10066800402B01300310F30DF40DFF3E031D362B14
:100678000130F7007708A007F41F432B442B352BD4
:1006880001300310A10DA20DFF3E031D452B740878
:100698007602031D512B73087502031C542B552B2E
:1006A8005C2B7308F5027408031CF603F602211488
:1006B80001300310F40CF30CFF3E031D5D2B0130D9
:1006C800A002031D682B692B442B2208F400210883
:1006D800F300080083120313230824040319752B5D
:1006E800762BA52BA801A80A842B01300310A30D93
:1006F800A40DFF3E031D7A2B0130A7002708A80789
:10070800A41F872B882B792B24082602031D8E2BE8
:1007180023082502031C912B922B982B2308A50252
:100728002408031CA603A60201300310A40CA30C82
:10073800FF3E031D992B0130A802031DA42BA52BF6
:10074800882B2608A4002508A300080003308A0087
:100758000408840A82070034013400340A3400345F
:1007680064340034E834033410342734203420341B
:1007780054343A342034203454343A342034203435
:100788004E3475346C346C343A342034003441348B
:1007980025342E3433346934433400344234253418
:1007A8002E34333469344334003425342E3433340E
:1007B8006934003483120313A000A101A201F92BAC
:1007C8002108200784000A128A11AA230A128A1112
:1007D8000A128A114A240A128A1101308312031359
:1007E800A1070318A20A0030A207210820078400E5
:1007F8000A128A11AA230A128A11003A031D052C2B
:10080800062CE42B0800831203130C1F0C2C0D2C50
:10081800262C0C1378080319122C132C182C1E08DC
:10082800F0007008C4001C2C1E08F0007008C300FB
:1008380078080319202C222C0130232C0030F000DA
:100848007008F80072088A00710E8300FE0E7E0E92
:10085800090083120313A0002008031D342C352C33
:100868003D2C7708803E0A128A1164240A128A11E4
:10087800492C2003031D412C422C492C7708C03EEB
:100888000A128A1164240A128A110800F6008312D7
:100898000313091476080A128A11E5240A128A1128
:1008A8008312031309150630F5003030F400F40BF9
:1008B8005B2CF50B5B2C0000831203130911080055
:1008C800F60083120313091076080A128A11E52428
:1008D8000A128A118312031309150630F500303005
:1008E800F400F40B752CF50B752C00008312031320
:1008F80009110800F600F501761C832C842C882C3D
:100908007308F4007408F5070310F30D0310F60CD0
:100918007608031D902C912C802C750808008312F2
:1009280003131E08F3007308C300BF01C0010130A0
:10093800BD000030BE000A128A11D7240A128A119B
:10094800831203139F140800831203131E08F30075
:100958007308C4000130BF000030C000BD01BE01F3
:100968000A128A11DE240A128A11831203139F14B1
:100978000800F400F3013A3074020318C42CC52CA3
:10098800CD2C30307402031CCA2CCB2CCD2CF30197
:10099800F30A730C080064008001840A0406031932
:1009A80000340406D02C831203139F161F169F11C0
:1009B8001F110800831203139F161F129F151F1182
:0E09C8000800F3007308831203138800080070
:04400E00D420FF3F7C
:00000001FF
