:020000040000FA
:060000000A128A110E280D
:10000800FE00030EF1000408F2000A08F3000A12C9
:100018008A112E2E0A128A1111280A128A11FC2717
:100028000A128A11C3000A128A11FD270A128A11BC
:10003800C4000A128A11FE270A128A11C5000A1280
:100048008A11B6230A128A11F8000A128A11B723F4
:100058000A128A11F900BF01C001C101C201F601EB
:10006800F70183010A128A11C12983120313B70009
:100078002D30AF002F08B200AA2925303A060319FF
:100088004628472853283A08AF00370884002F0825
:10009800831380000130AF002F08B707AA29B801E1
:1000A800B901B4012C0884000A128A1100240A122A
:1000B8008A110A128A1199270A128A11031C6528C3
:1000C8006628A62883120313B801B9010A308312DF
:1000D8000313A0000030A1003908A3003808A200CB
:1000E8000A128A1109270A128A1183120313210896
:1000F800B9002008B8002C0884000A128A110024CC
:100108000A128A11D03EAF00FF3003180030B00049
:100118002F08B8070318B90A3008B9070130AF002B
:100128002F08AC072C0884000A128A1100240A122E
:100138008A110A128A1199270A128A110318A52806
:10014800A6286A28013083120313AC07FF302C0756
:1001580084000A128A1100240A128A11BA00AF0018
:10016800B0013008003A0319BA28AA292F08003A22
:100178000319BC29643A0319C5280D3A0319C5287F
:10018800AA293208840083130008B500840A0008ED
:10019800B6000230AF002F08B207B61FD428D52802
:1001A800DE280330AF002F08B404B509B609B50A34
:1001B8000319B60ABA01BA0A3A08AF002F07013E76
:1001C80084000A128A1100240A128A11B0000A1245
:1001D8008A1100240A128A11B10031083602031D5F
:1001E800F728300835020318FA28FB28FC280629C6
:1001F8000130AF002F08BA0705303A06031D05295C
:100208000629E0283808390403190B290C2918296C
:10021800340803390319112912291829FF30B8079E
:100228000318B90AFF30B9073908803A803C031D22
:100238001F2938083A020318222923292F29831253
:1002480003133A08AF00B0012F08B8023008031CA6
:10025800B903B902332983120313B801B901380865
:10026800390403193829392950292030AF003708B3
:1002780084002F08831380000130AF002F08B707D0
:10028800FF30B8070318B90AFF30B907380839042E
:10029800031D4F29502939293408033903195529D1
:1002A800562961292D30AF00370884002F088313A1
:1002B80080000130AF002F08B7073A08AF002F08B9
:1002C800B300A1290A30A7000030A8003308AF0006
:1002D8002F07013E84000A128A1100240A128A118B
:1002E800A0000A128A1100240A128A11A1003608F5
:1002F800A3003508A2000A128A11E8250A128A11F9
:10030800831203132108AA002008A9000A128A11DF
:100318006C260A128A11831203132708303EB00094
:100328003008BA003A08AF00370884002F08831352
:1003380080000130AF002F08B707FF30AF002F084B
:10034800B307330A031DA929AA2966290130AC0776
:10035800FF302C0784000A128A1100240A128A111D
:10036800AF002F08BA003A08031DBB29BC29412851
:1003780037088400831380010800831603130711CC
:100388008312031307110A128A11DD260A128A1131
:100398000A128A119E250A128A11E830F400FD30EB
:1003A800F5000A128A11BC270A128A110A128A1148
:1003B8006B270A128A110A128A1171220A128A11EB
:1003C800E830F400FD30F5000A128A11BC270A1241
:1003D8008A110A128A115A240A128A1183120313E3
:1003E800C00186300A128A114E270A128A110A128F
:1003F8008A11EC270A128A110430F4000030F50043
:100408000A128A11BC270A128A1190300A128A111C
:10041800AB270A128A1100300A128A11AB270A1276
:100428008A110A128A11EC270A128A110430F40080
:100438000030F5000A128A11BC270A128A1191307D
:100448008312031393000A128A11F4270A128A11DD
:100458000430F4000030F5000A128A11BC270A1291
:100468008A110A128A11D8270A128A1183120313D1
:10047800BE003E08C1000A128A11F4270A128A1126
:100488000A128A11E3270A128A110430F400003094
:10049800F5000A128A11BC270A128A110A128A1157
:1004A800CB270A128A110430F4000030F5000A1232
:1004B8008A11BC270A128A118312031341080A12EF
:1004C8008A11FF240A128A110A128A1185270A1230
:1004D8008A11F2290A128A110E2801300A128A1189
:1004E8004E270A128A1180300A128A114E270A12E0
:1004F8008A116430F4000030F5000A128A11BC2712
:100508000A128A118312031307146430F4000030AE
:10051800F5000A128A11BC270A128A11C42A83120A
:10052800031387146430F4000030F5000A128A11AE
:10053800BC270A128A11790884000A128A11002439
:100548000A128A118312031386006430F400003003
:10055800F5000A128A11BC270A128A1183120313A2
:1005680087106430F4000030F5000A128A11BC27A5
:100578000A128A11013083120313A4002408F90710
:10058800790884000A128A1100240A128A11003A92
:10059800031DCF2AD02A932AE830F400FD30F50055
:1005A8000A128A11BC270A128A110A128A11A8266D
:1005B8000A128A1183120313200821040319E52A59
:1005C800E62AEC2A0A128A11AF240A128A11F12AA1
:1005D8000A128A114F250A128A110800831203137E
:1005E800A501A11FF82AF92A002BA009A109A00A30
:1005F8000319A10AA501A50AA31F032B042B0D2B80
:10060800A209A309A20A0319A30A0130F400740875
:10061800A506A601A701200821040319142B152BF0
:100628004C2BA401A40A232B01300310A00DA10D0B
:10063800FF3E031D192B0130F4007408A407A11F05
:10064800262B272B182B01300310A60DA70DFF3ED4
:10065800031D282B21082302031D342B2008220206
:10066800031C372B382B3F2B2008A2022108031C20
:10067800A303A302261401300310A10CA00CFF3E13
:10068800031D402B0130A402031D4B2B4C2B272BA1
:1006980025080319502B512B562BA609A709A60A82
:1006A8000319A70A2708A1002608A000080083123A
:1006B8000313A501A31F612B622B692BA209A309B0
:1006C800A20A0319A30AA501A50AA11F6C2B6D2B69
:1006D800722BA009A109A00A0319A10A2008210464
:1006E8000319772B782BA72BA401A40A862B01309A
:1006F8000310A00DA10DFF3E031D7C2B0130F4005B
:100708007408A407A11F892B8A2B7B2B210823029D
:10071800031D902B20082202031C932B942B9A2B49
:100728002008A2022108031CA303A302013003101E
:10073800A10CA00CFF3E031D9B2B0130A402031D3E
:10074800A62BA72B8A2B25080319AB2BAC2BB12B77
:10075800A209A309A20A0319A30A2308A1002208CF
:08076800A000080036340B3438
:1008000004308A000408840A82070034013400346A
:100810000A34003464340034E834033410342734A8
:1008200044346534743465346334743461346E3400
:1008300064346F3420342E342E342E340034493452
:100840006E3469346334693461346E3464346F34C3
:10085000203449343234433400344E346F3420343D
:100860006834613479342034733465346E347334CD
:100870006F3472340034533465346E3473346F34EF
:10088000723420346C346934733474346F3400340B
:10089000543465346D34703420343A342034203488
:1008A00020342A344334003420342534323469343B
:1008B0002034003401300A128A114E270A128A119C
:1008C00080300A128A114E270A128A116430F4000D
:1008D0000030F5000A128A11BC270A128A1183120D
:1008E00003130714A22C87146430F4000030F500C1
:1008F0000A128A11BC270A128A11831203134308B1
:1009000084000A128A1100240A128A1186006430B7
:10091000F4000030F5000A128A11BC270A128A116D
:100920008312031387106430F4000030F5000A12BC
:100930008A11BC270A128A11013083120313A10005
:100940002108C307430884000A128A1100240A12EE
:100950008A11003A031DAD2CAE2C732C0800C03058
:100960000A128A114E270A128A116430F4000030EC
:10097000F5000A128A11BC270A128A118312031386
:100980000714F12C87146430F4000030F5000A12CB
:100990008A11BC270A128A118312031345088400A6
:1009A0000A128A1100240A128A1186006430F400A7
:1009B0000030F5000A128A11BC270A128A1183122C
:1009C000031387106430F4000030F5000A128A1116
:1009D000BC270A128A11013083120313A1002108D7
:1009E000C507450884000A128A1100240A128A11D8
:1009F000003A031DFC2CFD2CC22CFD2C0800831298
:100A00000313AA000A30A0000030A1002A08A800A1
:100A1000A9012808A2002908A3000A128A11F222BB
:100A20000A128A11831203132108AC002008AB00BC
:100A30002B080A128A1130270A128A116430F40036
:100A40000030F5000A128A11BC270A128A110A30F6
:100A500083120313A0000030A1002A08A800A901F6
:100A60002808A2002908A3000A128A115B230A128F
:100A70008A11831203132108AC002008AB002B0855
:100A80000A128A1130270A128A116430F4000030E9
:100A9000F5000A128A11BC270A128A110800C03018
:100AA0000A128A114E270A128A116430F4000030AB
:100AB000F5000A128A11BC270A128A118312031345
:100AC0000714912D87146430F4000030F5000A12E9
:100AD0008A11BC270A128A11780884000A128A1126
:100AE00000240A128A118312031386006430F40072
:100AF0000030F5000A128A11BC270A128A118312EB
:100B0000031387106430F4000030F5000A128A11D4
:100B1000BC270A128A11013083120313A100210895
:100B2000F807780884000A128A1100240A128A1130
:100B3000003A031D9C2D9D2D622D080001300A12E4
:100B40008A114E270A128A1180300A128A114E2702
:100B50000A128A11D92D071487146430F40000306A
:100B6000F5000A128A11BC270A128A118312031394
:100B7000440884000A128A1100240A128A1186008D
:100B8000C830F4000030F5000A128A11BC270A129E
:100B90008A118312031387100130A1002108C407B2
:100BA0006430F4000030F5000A128A11BC270A12E2
:100BB0008A1183120313440884000A128A11002444
:100BC0000A128A11003A031DE62DE72DAB2D08000D
:100BD00083120313A501A601200821040319F12D96
:100BE000F22D292EA401A40A002E01300310A00D1D
:100BF000A10DFF3E031DF62D0130F4007408A4077B
:100C0000A11F032E042EF52D01300310A50DA60DF6
:100C1000FF3E031D052E21082302031D112E20086F
:100C20002202031C142E152E1C2E2008A2022108BD
:100C3000031CA303A302251401300310A10CA00C74
:100C4000FF3E031D1D2E0130A402031D282E292E58
:100C5000042E2608A1002508A0000800831603130F
:100C60000C1E332E342E5A2E831203130C1E392ED3
:100C70003A2E5A2E760803193E2E3F2E452E77081F
:100C8000423E84008313000899000130F000700890
:100C9000F70705307706031D4E2E4F2E5A2E760885
:100CA0000319532E552E0130562E0030F0007008D7
:100CB000F600F70183128C1E5E2E5F2E632E1A083B
:100CC000F0007008C00073088A0072088400710E7A
:100CD0008300FE0E7E0E09008312031327082804EA
:100CE0000319732E742EA32EAB01AB0A822E013092
:100CF0000310A70DA80DFF3E031D782E0130F5004F
:100D00007508AB07A81F852E862E772E28082A0285
:100D1000031D8C2E27082902031C8F2E902E962E41
:100D20002708A9022808031CAA03AA0201300310FD
:100D3000A80CA70CFF3E031D972E0130AB02031D2C
:100D4000A22EA32E862E2A08A8002908A700080094
:100D50008316031311141118AE2EAF2EAB2E903044
:100D60000A128A11AB270A128A1183160313111F64
:100D7000BA2EBB2EBE2E8312031307158316031340
:100D800011151119C42EC52EC12EE830F400FD3006
:100D9000F5000A128A11BC270A128A110310831265
:100DA000031307190314003003180130A200A30134
:100DB0002208A0002308A10008008316031386015F
:100DC0008312031386018316031307108710C8309C
:100DD000F4000030F5000A128A11BC270A128A11A9
:100DE0000C300A128A114E270A128A1106300A1292
:100DF0008A114E270A128A1138300A128A114E2798
:100E00000A128A1180300A128A114E270A128A1198
:100E10000800F401F50183120313201C102F112F79
:100E2000172F2208F4070318F50A2308F5070130E5
:100E30000310A20DA30DFF3E031D182F0130031058
:100E4000A10CA00CFF3E031D1F2F20082104031D31
:100E50002A2F2B2F0B2F7508A1007408A000080063
:100E600083120313A000071487142008303E860065
:100E70006430F4000030F5000A128A11BC270A120F
:100E80008A11831203138710C830F4000030F50074
:100E90000A128A11BC270A128A110800831203134E
:100EA000A00007108714200886006430F40000308A
:100EB000F5000A128A11BC270A128A118312031341
:100EC00087106430F4000030F5000A128A11BC2744
:100ED0000A128A1108008316031387150716831256
:100EE00003139301C0308316031394002830831238
:100EF00003139400831603139101831203138C11BF
:100F0000093083160313930008004F308312031334
:100F1000BB003B08AC004108BC00BD013C08AD0073
:100F20003D08AE0042300A128A1139200A128A1195
:100F30000800F500F4013A3075020318A02FA12F24
:100F4000A92F30307502031CA62FA72FA92FF4015B
:100F5000F40A740C0800F40074088312031393005D
:100F6000831603131418B52FB62FB02F0A128A1147
:100F7000F4270A128A1108000130F4020030031C21
:100F8000F503F502740A031DC92F750A031DC92F45
:100F9000CA2FBC2F08000A128A11F4270A128A11DC
:100FA0008316031311151119D62FD72FD32F08002D
:100FB000831603139115141CDE2FDF2FDB2F8312F2
:100FC0000313130808008316031391161116111A40
:100FD000EA2FEB2FE72F08008316031391149118C3
:100FE000F22FF32FEF2F0800831203138C1DF92F1C
:0E0FF000FA2FF42F8C11080043341A342834E1
:04400E00F420FF3F5C
:00000001FF
