:020000040000FA
:100000000A128A11DD2F00308A000408840A820750
:100010000034443465347434653463347434613486
:100020006E3464346F3420342E342E342E34003445
:1000300049346E3469346334693461346E34643401
:100040006F34203449343234433400344E346F3406
:1000500020346834613479342034733465346E3438
:1000600073346F3472340034533465346E34733403
:100070006F34723420346C346934733474346F34B4
:100080000034543465346D34703420343A342034C0
:0A009000203420342A3443340034B5
:1006C800393410341E342C340134831203138C1D36
:1006D8006E2B6F2B692B8C11080083160313911452
:1006E8009118772B782B742B080083160313911617
:1006F8001116111A802B812B7D2B080083160313EA
:100708009115141C882B892B852B8312031313082E
:1007180008000A128A1169230A128A118316031320
:1007280011151119982B992B952B08000130F002FF
:100738000030031CF103F102700A031DA72B710A94
:10074800031DA72BA82B9A2B0800F0007008831212
:1007580003139300831603131418B32BB42BAE2B77
:100768000A128A1169230A128A11080083160313D0
:1007780087150716831203139301C03083160313DA
:1007880094002830831203139400831603139101F5
:10079800831203138C110930831603139300080086
:1007A800F20083120313071087147208860064305E
:1007B800F0000030F1000A128A119A230A128A11F5
:1007C8008312031387106430F0000030F1000A121E
:1007D8008A119A230A128A110800F200831203135D
:1007E800071487147208303E86006430F000003029
:1007F800F1000A128A119A230A128A11831203132A
:100808008710C830F0000030F1000A128A119A23CC
:100818000A128A1108008316031386018312031330
:1008280086018316031307108710C830F0000030C4
:10083800F1000A128A119A230A128A110C300A123C
:100848008A11D4230A128A1106300A128A11D42373
:100858000A128A1138300A128A11D4230A128A110C
:1008680080300A128A11D4230A128A1108008316CA
:10087800031311141118412C422C3E2C90300A12EB
:100888008A11A9230A128A1183160313111F4D2CEA
:100898004E2C512C831203130715831603131115BD
:1008A8001119572C582C542CE830F000FD30F10069
:1008B8000A128A119A230A128A1103108312031347
:1008C80007190314003003180130F400F501740807
:1008D800F2007508F3000800FB000A30F000003051
:1008E800F1007B08F900FA017908F2007A08F300B0
:1008F8000A128A114F260A128A117108FD0070081F
:10090800FC007C080A128A11F1230A128A11643049
:10091800F0000030F1000A128A119A230A128A1193
:100928000A30F0000030F1007B08F900FA0179087C
:10093800F2007A08F3000A128A11F6250A128A11BF
:100948007108FD007008FC007C080A128A11F12366
:100958000A128A116430F0000030F1000A128A117C
:100968009A230A128A11080001300A128A11D42324
:100978000A128A1180300A128A11D4230A128A11A3
:10098800F32C071487146430F0000030F1000A12C9
:100998008A119A230A128A118312031321088400E8
:1009A8000A128A1103200A128A118600C830F00040
:1009B8000030F1000A128A119A230A128A1183124E
:1009C800031387100130F3007308A1076430F000A7
:1009D8000030F1000A128A119A230A128A1183122E
:1009E8000313210884000A128A1103200A128A11AB
:1009F800003A031D002D012DC52C0800C0300A1235
:100A08008A11D4230A128A116430F0000030F100F0
:100A18000A128A119A230A128A11831203130714DD
:100A2800442D87146430F0000030F1000A128A1156
:100A38009A230A128A1183120313230884000A12C4
:100A48008A1103200A128A1186006430F0000030EF
:100A5800F1000A128A119A230A128A1183120313C7
:100A680087106430F0000030F1000A128A119A23CE
:100A78000A128A110130F300730883120313A307C3
:100A8800230884000A128A1103200A128A11003AE4
:100A9800031D4F2D502D152D0800C0300A128A1144
:100AA800D4230A128A116430F0000030F1000A12CF
:100AB8008A119A230A128A11831203130714932D99
:100AC80087146430F0000030F1000A128A119A236A
:100AD8000A128A1183120313220884000A128A1147
:100AE80003200A128A1186006430F0000030F100F9
:100AF8000A128A119A230A128A1183120313871081
:100B08006430F0000030F1000A128A119A230A12A8
:100B18008A110130F300730883120313A207220815
:100B280084000A128A1103200A128A11003A031D4E
:100B38009E2D9F2D642D9F2D080001300A128A11C9
:100B4800D4230A128A1180300A128A11D4230A1275
:100B58008A116430F0000030F1000A128A119A23D9
:100B68000A128A11831203130714E92D87146430BB
:100B7800F0000030F1000A128A119A230A128A1131
:100B880083120313200884000A128A1103200A1210
:100B98008A1186006430F0000030F1000A128A11D0
:100BA8009A230A128A118312031387106430F00003
:100BB8000030F1000A128A119A230A128A110130B0
:100BC800F300730883120313A007200884000A1295
:100BD8008A1103200A128A11003A031DF42DF52DFB
:100BE800BA2D0800F601F31FFA2DFB2D022EF2098B
:100BF800F309F20A0319F30AF601F60AF11F052EA2
:100C0800062E0B2EF009F109F00A0319F10A7008F3
:100C180071040319102E112E402EF501F50A1F2E0E
:100C280001300310F00DF10DFF3E031D152E0130AC
:100C3800F4007408F507F11F222E232E142E7108D4
:100C48007302031D292E70087202031C2C2E2D2EF0
:100C5800332E7008F2027108031CF303F30201300B
:100C68000310F10CF00CFF3E031D342E0130F50289
:100C7800031D3F2E402E232E76080319442E452EA1
:100C88004A2EF209F309F20A0319F30A7308F1006C
:100C98007208F0000800F601F11F532E542E5B2E47
:100CA800F009F109F00A0319F10AF601F60AF31F2F
:100CB8005E2E5F2E682EF209F309F20A0319F30A71
:100CC8000130F4007408F606F701F80170087104A1
:100CD80003196F2E702EA72EF501F50A7E2E01300E
:100CE8000310F00DF10DFF3E031D742E0130F400CA
:100CF8007408F507F11F812E822E732E0130031020
:100D0800F70DF80DFF3E031D832E71087302031DB6
:100D18008F2E70087202031C922E932E9A2E700842
:100D2800F2027108031CF303F30277140130031075
:100D3800F10CF00CFF3E031D9B2E0130F502031D44
:100D4800A62EA72E822E76080319AB2EAC2EB12E16
:100D5800F709F809F70A0319F80A7808F10077087B
:100D6800F000080001300A128A11D4230A128A11ED
:100D780080300A128A11D4230A128A116430F000D2
:100D88000030F1000A128A119A230A128A1183127A
:100D9800031307146430F0000030F1000A128A11BE
:100DA8009A230A128A11072F87146430F000003042
:100DB800F1000A128A119A230A128A118312031364
:100DC800240884000A128A1103200A128A11860054
:100DD8006430F0000030F1000A128A119A230A12D6
:100DE8008A118312031387106430F0000030F10079
:100DF8000A128A119A230A128A110130F60076081B
:100E080083120313A40783120313240884000A120D
:100E18008A1103200A128A11003A031D142F152F74
:100E2800D82EE830F000FD30F1000A128A119A231A
:100E38000A128A110A128A113B240A128A117208AC
:100E480073040319282F292F2F2F0A128A115125CD
:100E58000A128A11342F0A128A1102250A128A11DB
:100E680008008316031307118312031307110A12CC
:100E78008A110F240A128A110A128A11B8240A1236
:100E88008A11E830F000FD30F1000A128A119A2325
:100E98000A128A110A128A11BA230A128A110A122C
:100EA8008A11B6260A128A11E830F000FD30F100E6
:100EB8000A128A119A230A128A110A128A11A12582
:100EC8000A128A1186300A128A11D4230A128A1148
:100ED8000A128A1171230A128A110430F0000030B4
:100EE800F1000A128A119A230A128A1190300A1202
:100EF8008A11A9230A128A1100300A128A11A92319
:100F08000A128A110A128A1171230A128A110430EC
:100F1800F0000030F1000A128A119A230A128A118D
:100F280091308312031393000A128A1169230A125B
:100F38008A110430F0000030F1000A128A119A2355
:100F48000A128A110A128A1182230A128A1183123A
:100F58000313A6002608A5000A128A1169230A129B
:100F68008A110A128A1179230A128A110430F000B0
:100F78000030F1000A128A119A230A128A110A1201
:100F88008A118D230A128A110430F0000030F10012
:100F98000A128A119A230A128A1183120313250846
:100FA8000A128A1170240A128A11662F0A128A11EB
:100FB80000280A128A1164230A128A11A0000A1250
:100FC8008A1165230A128A11A1000A128A1166235E
:100FD8000A128A11A2000A128A1167230A128A11B8
:100FE800A3000A128A1168230A128A11A400A50113
:080FF80083010A128A11352F52
:04400E00F420FF3F5C
:00000001FF
