:020000040000FA
:100000000A128A11E42F00308A000408840A820749
:1000100000343F3406345B344F3466346D347D3401
:1000200007347F34673477347C3439345E34793440
:02003000713429
:100CB200013401340A128A1168260A128A110A12B0
:100CC2008A1105270A128A110A128A110028703025
:100CD200831603138F040F1085017F30860087016E
:100CE200880101308900831203138501860187017F
:100CF20088010230890083160317890108138312C1
:100D020003131F179F131F119F151F169F12831680
:100D120003131F129F129F13831203139F141F1496
:100D22008B17831603130C130C178B170B100B1452
:100D320001309600161496150800F601F11FA22E36
:100D4200A32EAA2EF009F109F00A0319F10AF601FD
:100D5200F60AF31FAD2EAE2EB72EF209F309F20AF0
:100D62000319F30A0130F4007408F606F701F801DA
:100D7200700871040319BE2EBF2EF62EF501F50A76
:100D8200CD2E01300310F00DF10DFF3E031DC32ED9
:100D92000130F4007408F507F11FD02ED12EC22EB7
:100DA20001300310F70DF80DFF3E031DD22E71081E
:100DB2007302031DDE2E70087202031CE12EE22E66
:100DC200E92E7008F2027108031CF303F302771490
:100DD20001300310F10CF00CFF3E031DEA2E01302E
:100DE200F502031DF52EF62ED12E76080319FA2EE2
:100DF200FB2E002FF709F809F70A0319F80A7808F9
:100E0200F1007708F00008001030FB003930FA00DA
:100E12000D30F900F90B0B2FFA0B0B2FFB0B0B2FDD
:100E2200122FFC0183120313061C182F192F1B2FDC
:100E3200FC01FC0A8316031316087C06FE397C06A5
:100E4200960016080139003A0319282F292F492F35
:100E52008312031386170130AA070318AB0A003066
:100E6200AB070330FB008A30FA005530F900F90B6A
:100E7200382FFA0B382FFB0B382F3F2F8316031313
:100E8200161083120618462F472F422F2A08850074
:100E9200FD018312861D4E2F4F2F512FFD01FD0A9A
:100EA2007D08F900F90DF90DF90D831603131608E3
:100EB2007906F73979069600160CFA00FA0C7A0CC4
:100EC2000139003A0319662F672F872FFF308312EB
:100ED2000313AA070318AB0AFF30AB070330FB006A
:100EE2008A30FA005530F900F90B752FFA0B752F7D
:100EF200FB0B752F7C2F831203138619812F822FF0
:100F02007C2F2A088500831603139611831203137C
:100F12002B08803AFF0081307F02031D922F0030A0
:100F22002A02031C952F962F9A2F83120313AA01CC
:100F3200AB01831203139F189F2FA02F122F1E089D
:100F4200F900FA017908A6007A08A7001E08F9003C
:100F5200FA017908A4007A08A5001030F0000030E8
:100F6200F1002708F3002608F2000A128A119E26D1
:100F72000A128A110F30700583120313A600003083
:100F82007105A7000F302405A40000302505A50037
:100F92002608013E84000A128A1103200A128A11CD
:100FA20088000714071087102408013E84000A12E3
:100FB2008A1103200A128A118800071087148710E9
:100FC2009F14122F08000A128A1159260A128A1136
:100FD200AC000A128A115A260A128A11AD00A00127
:100FE200A101A201A301A401A501A601A701A801D3
:0E0FF200A901AA01AB0183010A128A115B2E2C
:04400E00D420FF3F7C
:00000001FF
