:020000040000FA
:060000000A128A11E42F30
:100F20000A128A11BC270A128A11952F0A128A11F5
:100F300000283F3406345B344F3466346D347D34DE
:100F400007347F34673477347C3439345E34793411
:100F500071347E088A007F0882000A128A11A9274C
:100F60000A128A118000840A04087D0603190034DD
:100F7000FF0A0319FE0AAD2F831603138501013002
:100F800086008701880101308900831203138501DF
:100F90008601870188018901831603178801890169
:100FA0000813831203131F179F131F119F151F167A
:100FB0009F12831603131F129F129F138312031392
:100FC0009F141F148B17080083133030FD00073067
:100FD000FE009930FF00203084000A128A11AD27EC
:100FE0000A128A11F001F101F201F301F401F50195
:100FF000F601F701F801F90183010A128A11902F15
:04400E00D420FF3F7C
:00000001FF
