:020000040000FA
:100000000A128A11E22F00308A000408840A82074B
:1000100000343F3406345B344F3466346D347D3401
:1000200007347F34673477347C3439345E34793440
:02003000713429
:100C7C00013401340A128A114D260A128A110A1201
:100C8C008A11EA260A128A110A128A110028703077
:100C9C00831603138F040F1085017F3086008701A4
:100CAC0088010130890083120313850186018701B5
:100CBC0088010230890083160317890108138312F7
:100CCC0003131F179F131F119F151F169F128316B7
:100CDC0003131F129F129F13831203139F141F14CD
:100CEC008B17831603130C130C178B170B100B1489
:100CFC0001309600161496150800F601F11F872E88
:100D0C00882E8F2EF009F109F00A0319F10AF60169
:100D1C00F60AF31F922E932E9C2EF209F309F20A77
:100D2C000319F30A0130F4007408F606F701F80110
:100D3C00700871040319A32EA42EDB2EF501F50AFD
:100D4C00B22E01300310F00DF10DFF3E031DA82E45
:100D5C000130F4007408F507F11FB52EB62EA72E3E
:100D6C0001300310F70DF80DFF3E031DB72E71086F
:100D7C007302031DC32E70087202031CC62EC72EED
:100D8C00CE2E7008F2027108031CF303F3027714E1
:100D9C0001300310F10CF00CFF3E031DCF2E01307F
:100DAC00F502031DDA2EDB2EB62E76080319DF2E84
:100DBC00E02EE52EF709F809F70A0319F80A780866
:100DCC00F1007708F00008000430FB000C30FA004A
:100DDC003330F900F90BF02EFA0BF02EFB0BF02E42
:100DEC00F72EFC0183120313061CFD2EFE2E002F82
:100DFC00FC01FC0A8316031316087C06FE397C06DC
:100E0C00960016080139003A03190D2F0E2F2D2FBD
:100E1C00013083120313AC070318AD0A0030AD0781
:100E2C000630FB001330FA00AD30F900F90B1C2F23
:100E3C00FA0B1C2FFB0B1C2F232F831603131610DE
:100E4C00831206182A2F2B2F262F2C088500FD0124
:100E5C008312861D322F332F352FFD01FD0A7D089D
:100E6C00F900F90DF90DF90D83160313160879061F
:100E7C00F73979069600160CFA00FA0C7A0C01393F
:100E8C00003A03194A2F4B2F6B2FFF308312031399
:100E9C00AC070318AD0AFF30AD070630FB0013306A
:100EAC00FA00AD30F900F90B592FFA0B592FFB0B47
:100EBC00592F602F831203138619652F662F602F0D
:100ECC002C088500831603139611831203132D0827
:100EDC00803AFF0081307F02031D762F00302C02F8
:100EEC00031C792F7A2F7E2F83120313AC01AD01D3
:100EFC00831203139F18832F842FCB2F1E08F90006
:100F0C00FA017908A8007A08A9001E08F900FA016C
:100F1C007908A6007A08A7001030F0000030F10024
:100F2C002908F3002808F2000A128A1183260A12F3
:100F3C008A110F30700583120313A800003071055D
:100F4C00A9000F302605A60000302705A7001E08B3
:100F5C00F900FA017908A4007A08A5002808013ED6
:100F6C0084000A128A1103200A128A1188000714BD
:100F7C0007102608013E84000A128A1103200A1267
:100F8C008A118800871487109F142D08803AF90065
:100F9C002508803A7902031DD52F24082C0203184A
:100FAC00D82FD92FDD2F831203138617F72E831218
:100FBC0003138613F72E08000A128A113E260A1212
:100FCC008A11AE000A128A113F260A128A11AF004A
:100FDC00A001A101A201A301A401A501A601A701E1
:100FEC00A801A901AA01AB01AC01AD0183010A1250
:040FFC008A11402EE8
:04400E00D420FF3F7C
:00000001FF
