:020000040000FA
:060000000A128A110C280F
:10000800FE00030EFC000A08FD000A128A11F828F7
:100018000A128A110F2883133030FD000130FE00C8
:100028003230FF00203084000A128A1123210A127C
:100038008A11F001F101F201F301F401F501F60171
:10004800F701F801F90183010A128A11CC287D28E9
:1000580083120313071487100711871107128712D9
:1000680007138713831203130710871407118711C7
:1000780007128712071387138312031307108710B9
:1000880007158711071287120713871383120313A3
:100098000710871007118715071287120713871390
:1000A8008312031307108710071187110716871289
:1000B800071387138312031307108710071187117B
:1000C8000712871607138713831203130710871065
:1000D8000711871107128712071787138312031353
:1000E8000710871007118711071287120713871740
:1000F8009C287908003A031982289C287808013A34
:1001080003192C28033A03193628013A0319402801
:10011800073A03194A28013A03195428033A0319DC
:100128005E28013A031968280F3A031972289C2897
:1001380008008316031385010130860087018801B2
:100148000130890083120313850186018701880124
:1001580089018316031788018901831203131F1766
:100168009F131F159F111F169F16831603131F1227
:100178009F129F13831203139F141F148B170B17BF
:100188000B16831603130C17831203130C130800A2
:100198000A128A119D200A128A11831203138619E2
:1001A800D628D728DB280130F6000030F700861D56
:1001B800DE28DF28EF2876037704031DE428E528E6
:1001C800EF287808013EF80079080318013E003E40
:1001D800F900F601F7010A128A112B200A128A1176
:1001E800D1280A128A110C288B1CFB28FC28032909
:1001F8008B100130F8070318F90A0030F907831249
:1002080003130C1F0829092918290C131E08FA00C2
:10021800FB017A08F4007B08F5001E08FA00FB01D0
:100228007A08F2007B08F3007D088A007C0E8300C0
:10023800FE0E7E0E09007E088A007F0882000A12E0
:100248008A111F210A128A118000840A04087D0677
:1002580003190034FF0A0319FE0A23293F34063420
:100268005B344F3466346D347D3407347F346734FF
:0C02780077347C3439345E3479347134CE
:04400E00D420FF3F7C
:00000001FF
