:020000040000FA
:060000000A128A11F42F20
:100E9E0001340A128A115D270A128A110A128A1166
:100EAE0073270A128A110A128A1100288316031355
:100EBE0085017F3086008312031385018601831618
:100ECE00031789018B170B100B14013083160313B4
:100EDE009600161496150800F30183120313061CD0
:100EEE00792F7A2F7C2FF301F30A8316031316083A
:100EFE007306FE397306960016080139003A031977
:100F0E00892F8A2FA72F0130F5070318F60A003014
:100F1E00F6070630F2001330F100AD30F000F00BA2
:100F2E00962FF10B962FF20B962F9D2F83160313F0
:100F3E00161083120618A42FA52FA02F7508850052
:100F4E00F4018312861DAC2FAD2FAF2FF401F40ADE
:100F5E007408F000F00DF00DF00D83160313160853
:100F6E007006F73970069600160CF100F10C710C34
:100F7E000139003A0319C42FC52FE32FFF30F507AF
:100F8E000318F60AFF30F6070630F2001330F100B0
:100F9E00AD30F000F00BD12FF10BD12FF20BD12F82
:100FAE00D82F831203138619DD2FDE2FD82F750845
:100FBE0085008316031396117608803AFF00813060
:100FCE007F02031DEC2F00307502031CEF2FF02F54
:100FDE00732FF501F601732F08000A128A114F279D
:100FEE000A128A11F700F501F60183010A128A111D
:020FFE00502F72
:04400E00D420FF3F7C
:00000001FF
