:020000040000FA
:100000000A128A11E22F00308A000408840A82074B
:1000100000343F3406345B344F3466346D347D3401
:1000200007347F34673477347C3439345E34793440
:02003000713429
:100E7800013401340A128A114B270A128A110A1204
:100E88008A1161270A128A110A128A110028831608
:100E9800031385017F3086008312031385018601C1
:100EA8008316031789018B170B100B140130831657
:100EB80003139600161496150800F90183120313FC
:100EC800061C672F682F6A2FF901F90A8316031386
:100ED80016087906FE397906960016080139003A8F
:100EE8000319772F782F952F0130F4070318F50A87
:100EF8000030F5070630F8001330F700AD30F60083
:100F0800F60B842FF70B842FF80B842F8B2F831667
:100F18000313161083120618922F932F8E2F74081E
:100F28008500FA018312861D9A2F9B2F9D2FFA01A7
:100F3800FA0A7A08F600F60DF60DF60D8316031375
:100F480016087606F73976069600160CF700F70CA1
:100F5800770C0139003A0319B22FB32FD12FFF3084
:100F6800F4070318F50AFF30F5070630F8001330C8
:100F7800F700AD30F600F60BBF2FF70BBF2FF80BBD
:100F8800BF2FC62F831203138619CB2FCC2FC62F42
:100F9800740885008316031396117508803AFF00BC
:100FA80081307F02031DDA2F00307402031CDD2F0D
:100FB800DE2F612FF401F501612F08000A128A1152
:100FC8003C270A128A11FB000A128A113D270A12CD
:100FD8008A11FC00A001A101A201A301A401A5019D
:100FE800A601A701F001F101F201F301F401F501F5
:080FF80083010A128A113E2F49
:04400E00D420FF3F7C
:00000001FF
