:020000040000FA
:060000000A128A11EC2F28
:10000800F2000A128A1539220A128A11720883121A
:1000180003138800871607130A128A156B210A1220
:100028008A1108008312031351088039D20052083C
:10003800DB005108D2005207D3005308E200D01F5A
:100048002628272828286214620803192C282D2816
:100058003D28620A031D312832283A280030D10091
:100068000030D0000030CF000030CE00D017D101D2
:1000780045280030D1000030D0000030CF000030DB
:10008800CE004D088039D2005208DB064D08D20058
:100098005207D3005308E300CC1F5328542855288F
:1000A80063146308031959285A286A28630A031D28
:1000B8005E285F2867280030CD000030CC00003073
:1000C800CB000030CA00CC17CD0172280030CD001B
:1000D8000030CC000030CB000030CA004D084C0482
:1000E8004B044A04031D79287A2893280030D1004C
:1000F8000030D0000030CF000030CE008030D00477
:100108007F30D1045B08D2005208D1045108CD00D9
:100118005008CC004F08CB004E08CA00F2296208EC
:10012800031D97289828A1280030CD000030CC0066
:100138000030CB000030CA00F2296208D200D30197
:100148005308D50063085202D400031CD503540891
:100158007F3EDC0055080318013E003EDD005108D3
:10016800DA005008D9004F08D8004E08D7000030F0
:10017800D1000030D0000030CF000030CE00003079
:10018800E1000030E0000030DF000030DE00E30175
:10019800172963080319D128D228F2280130D20080
:1001A8000310D70DD80DD90DDA0DD20BD428013094
:1001B800D2000310CE0DCF0DD00DD10DD20BDD28FE
:1001C800E11FE728E828E9284E140130D20003107F
:1001D800DE0DDF0DE00DE10DD20BEB284D085A02C4
:1001E800031D00294C085902031D00294B08580219
:1001F800031D00294A085702031C0329042913294F
:1002080061174A08D7024B08031C4B0FD8024C0849
:10021800031C4C0FD9024D08031C4D0FDA020130A4
:10022800D2005208E3071A306302031C1C291D2957
:10023800CD285A0859045804570403192429252994
:1002480044295E1444290130D2000310CE0DCF0D8D
:10025800D00DD10DD20B2929E11F33293429352995
:100268004E140130D2000310DE0DDF0DE00DE10D5C
:10027800D20B3729FF30DC070318DD0AFF30DD0712
:10028800D01F472948292729E301E11F4C294D2977
:100298006929FF305E05D200FF305F05D300FF30CB
:1002A8006005D4007F306105D50055085404530417
:1002B80052040319602961296429E301E30A6929C1
:1002C8004E1C6729682969296129630803196D2962
:1002D8006E299F290130CE07003003180130CF075F
:1002E800003003180130D007003003180130D1075F
:1002F800511C7F2980299F294E08D2004F08D3001E
:100308005008D4005108D5000130D600550DD50C41
:10031800D40CD30CD20CD60B8A295508D10054081A
:10032800D0005308CF005208CE000130DC07031874
:10033800DD0A0030DD075D08803AFF0080307F026B
:10034800031DA829FF305C02031CAB29AC29BA297C
:10035800FF3083120313DC000030DD000030D100D1
:100368000030D0000030CF000030CE0083120313DD
:100378005D08803AFF0080307F02031DC5290130E7
:100388005C020318C829C929D62983120313DC0182
:10039800DD010030D1000030D0000030CF00003047
:1003A800CE00DB01831203135C08D2005208E2007E
:1003B800621CDF29E029E229D017E6297F30D20024
:1003C8005208D0056208D2000310520CD30053081B
:1003D800D1005B08D2005208D1048A2808007308AB
:1003E800803983120313A0002008F8007308A000C6
:1003F8002007A1002108FA00F21F032A042A052A6F
:100408007A147A080319092A0A2A1A2A7A0A031D69
:100418000E2A0F2A172A0030F3000030F2000030AD
:10042800F1000030F000F217F301222A0030F30047
:100438000030F2000030F1000030F0007708803919
:10044800A0002008F9007908780603192C2A2D2A1B
:100458002E2A78177708A0002007A1002108F900A4
:10046800F61F372A382A392A7914790803193D2AB8
:100478003E2A4E2A790A031D422A432A4B2A003073
:10048800F7000030F6000030F5000030F400F617F1
:10049800F701562A0030F7000030F6000030F5006A
:1004A8000030F4007A08790203185B2A5C2AA02A33
:1004B800781F5F2A602A642A8030A0002008F80686
:1004C8007A08A0002008FB007908A0002008FA009C
:1004D8007B08A0002008F9007008A0002008FB0095
:1004E8007408A0002008F0007B08A0002008F40091
:1004F8007108A0002008FB007508A0002008F10082
:100508007B08A0002008F5007208A0002008FB0066
:100518007608A0002008F2007B08A0002008F6005A
:100528007308A0002008FB007708A0002008F3004B
:100538007B08A0002008F700FB017908A000A101B2
:100548002108A3007A082002A200031CA3032308A1
:10055800803AFF0080307F02031DB42A1A3022023D
:10056800031CB72AB82AF92A7308720471047004A4
:10057800031DBF2AC12A0130C22A00308312031387
:10058800A0002008FB000030F3000030F20000302B
:10059800F1000030F0007908A0002008FA00FF2AD6
:1005A8007B1CD72AD82AE32A7B0883120313A000CE
:1005B8000310200C0138A1002108FB00E52A0310D4
:1005C800FB0C701CE82AE92AEA2AFB17013083127F
:1005D8000313A000730DF30CF20CF10CF00CA00B3C
:1005E800EE2A0130A0002008FA0779087A02031CD5
:1005F800FE2AFF2AD42A781B022B032B522B7A08B7
:10060800031D072B082B112B0030F3000030F200DC
:100618000030F1000030F0008A2C7408F0077508EB
:1006280003110318013E03191A2BF1077608031169
:100638000318013E0319212BF20777080311031849
:10064800013E0319282BF307731C2B2B2C2B0A2C88
:100658007B1C2F2B302B3B2B7B0883120313A00012
:100668000310200C0138A1002108FB003D2B0310CA
:10067800FB0C701C402B412B422BFB1701308312C3
:100688000313A000730DF30CF20CF10CF00CA00B8B
:10069800462B0130A0002008FA070A2C7308803A7C
:1006A800FF007708803A7F02031D642B76087202E8
:1006B800031D642B75087102031D642B74087002F6
:1006C8000318672B682BC22BFF3083120313A0007B
:1006D800FF30A100FF30A200FF30A3007408A4007F
:1006E8007508A5007608A6007708A7007008A40278
:1006F8007108031C710F812B822BA5027208031C41
:10070800720F872B882BA6027308031C730F8D2B7F
:100718008E2BA7022408A00725080318250F952B60
:10072800962BA10726080318260F9B2B9C2BA207A4
:1007380027080318270AA3072308F3002208F20052
:100748002108F1002008F0008030A0002008F806F9
:10075800FB09FB0A7B08031DB22BB32BD02B0130FE
:10076800F007003003180130F1070030031801309A
:10077800F207003003180130F307D02B7408F00299
:100788007508031C750FF1027608031C760FF20238
:100798007708031C770FF30273087204710470045E
:1007A800031DD72BD82B062C7B08031DDC2BDD2B38
:1007B800062C0030F3000030F2000030F100003069
:1007C800F0008A2C013083120313A0000310F00DEF
:1007D800F10DF20DF30DA00BEA2BFB1FF42BF52BFB
:1007E800F62B70147B1CF92BFA2BFD2B0314FB0D35
:1007F800FF2B0310FB0D7A080319032C042C062C7D
:100808000130FA02F21F092C0A2CE62BF901FB1F12
:100818000E2C0F2C1D2C7B087F390319142C152C3A
:10082800182CF901F90A1D2C701C1B2C1C2C1D2CD2
:10083800152C79080319212C222C582C0130F0078B
:10084800003003180130F107003003180130F207B7
:10085800003003180130F307731C332C342C582C48
:10086800700883120313A0007108A1007208A20087
:100878007308A3000130A400230DA30CA20CA10C43
:10088800A00CA40B402C2308F3002208F200210836
:10089800F1002008F0007A0A0319532C542C582C24
:1008A8000130A0002008FA077A0A03195C2C5D2C95
:1008B800622C7A08031D612C622C702C0030F30026
:1008C8000030F2000030F1000030F0007A08031D1B
:1008D8006E2C6F2C702CF8017A1C732C742C762CCF
:1008E800F2177C2C7F3083120313A0002008F20536
:1008F8007A0883120313A0000310200CA10021081A
:10090800F300F81F882C892C8A2CF317080083120F
:10091800031333088039B8003808BD003308B8001D
:100928003807B9003908C300B21F9B2C9C2C9D2C9A
:10093800431443080319A12CA22CB12C430A031D0C
:10094800A62CA72CAF2C0030B3000030B20000302A
:10095800B1000030B000B217B92C0030B30000303D
:10096800B2000030B1000030B00037088039B8005C
:100978003808BD063708B8003807B9003908C2007A
:10098800B61FC72CC82CC92C421442080319CD2CF9
:10099800CE2CDD2C420A031DD22CD32CDB2C0030AC
:1009A800B7000030B6000030B5000030B400B6170C
:1009B800E52C0030B7000030B6000030B50000303C
:1009C800B40042080319E92CEA2CEF2C4308031D54
:1009D800EE2CEF2CF82C0030B3000030B2000030C1
:1009E800B1000030B000EB2F3008B8003808F00034
:1009F80036080A128A15EB210A128A117108831225
:100A08000313C9007008C8004808B800B901BA0142
:100A1800BB013B08C1003A08C0003908BF003808CC
:100A2800BE004908B800B901BA01BB013B08C700BC
:100A38003A08C6003908C5003808C4003108B800AB
:100A48003808F00035080A128A15EB210A128A11B3
:100A5800710883120313C9007008C8004808B80059
:100A6800B901BA01BB013808BE07390803110318D8
:100A7800013E0319402DBF073A0803110318013E30
:100A88000319472DC0073B0803110318013E03193A
:100A98004E2DC1074908B800B901BA01BB01380891
:100AA800C407390803110318013E03195C2DC50753
:100AB8003A0803110318013E0319632DC6073B08C2
:100AC80003110318013E03196A2DC7073208B8003D
:100AD8003808F00034080A128A15EB210A128A1124
:100AE800710883120313C9007008C8004808B800C9
:100AF800B901BA01BB013808BE0739080311031848
:100B0800013E0319882DBF073A0803110318013E57
:100B180003198F2DC0073B0803110318013E031961
:100B2800962DC1074908B800B901BA01BB013808B8
:100B3800C407390803110318013E0319A42DC5077A
:100B48003A0803110318013E0319AB2DC6073B08E9
:100B580003110318013E0319B22DC7070830B80066
:100B68000310BE0DBF0DC00DC10DB80BB42D31085B
:100B7800B8003808F00034080A128A15EB210A1266
:100B88008A11710883120313C9007008C800480845
:100B9800B8004908B900BA01BB013808BE073908CE
:100BA80003110318013E0319DA2DBF073A08031190
:100BB8000318013E0319E12DC0073B080311031870
:100BC800013E0319E82DC1073008B8003808F000C5
:100BD80035080A128A15EB210A128A117108831244
:100BE8000313C9007008C8004808B8004908B900CC
:100BF800BA01BB013808BE07390803110318013EC2
:100C08000319072EBF073A0803110318013E0319F9
:100C18000E2EC0073B0803110318013E0319152EB9
:100C2800C1070830B8000310BE0DBF0DC00DC10DBF
:100C3800B80B172E3008B8003808F00034080A122C
:100C48008A15EB210A128A11710883120313C9004D
:100C58007008C8004808B8004908B900BA01BB01C3
:100C68003808BE07390803110318013E03193D2E41
:100C7800BF073A0803110318013E0319442EC007A1
:100C88003B0803110318013E03194B2EC107310815
:100C9800B8003808F00036080A128A15EB210A1243
:100CA8008A11710883120313C9007008C800480824
:100CB800B8004908B900BA01BB013808C4073908A7
:100CC80003110318013E03196A2EC5073A080311D8
:100CD8000318013E0319712EC6073B0803110318B8
:100CE800013E0319782EC7073208B8003808F0000B
:100CF80035080A128A15EB210A128A117108831223
:100D08000313C9007008C8004808B8004908B900AA
:100D1800BA01BB013808C407390803110318013E9A
:100D28000319972EC5073A0803110318013E031942
:100D38009E2EC6073B0803110318013E0319A52E72
:100D4800C7073208B8003808F00036080A128A15B2
:100D5800EB210A128A11710883120313C900700863
:100D6800C8004808B8004908B900BA01BB010830F2
:100D78000310B80DB90DBA0DBB0DFF3E031DBC2EF7
:100D88003808C407390803110318013E0319CD2E8A
:100D9800C5073A0803110318013E0319D42EC607E4
:100DA8003B0803110318013E0319DB2EC7073E0851
:100DB800B8003F08B9004008BA004108BB00183025
:100DC8000310BB0CBA0CB90CB80CFF3E031DE42E83
:100DD8003808C407390803110318013E0319F52E12
:100DE800C5073A0803110318013E0319FC2EC6076C
:100DF8003B0803110318013E0319032FC7070830E6
:100E0800B8000310BE0DBF0DC00DC10DB80B052FE6
:100E180043084207B800B901B90D3808823EC80036
:100E280039080318013EFF3EC900372F0130B800CA
:100E38000310C40DC50DC60DC70DB80B1C2FC11F5F
:100E4800262F272F282F44140130B8000310BE0D79
:100E5800BF0DC00DC10DB80B2A2FFF30C8070318EE
:100E6800C90AFF30C907C61F3A2F3B2F1A2FC201E4
:100E7800C11F3F2F402F5C2FFF303E05B800FF30C9
:100E88003F05B900FF304005BA007F304105BB007F
:100E98003B083A04390438040319532F542F572FA9
:100EA800C201C20A5C2F441C5A2F5B2F5C2F542F9F
:100EB80042080319602F612F922F0130C4070030B8
:100EC80003180130C507003003180130C607003089
:100ED80003180130C707471C722F732F922F44083D
:100EE800B8004508B9004608BA004708BB000130F9
:100EF800BC003B0DBB0CBA0CB90CB80CBC0B7D2F5D
:100F08003B08C7003A08C6003908C5003808C400BD
:100F18000130C8070318C90A0030C9074908803AD0
:100F2800FF0080307F02031D9B2FFF304802031C07
:100F38009E2F9F2FAA2F7F3083120313C700803064
:100F4800C6000030C5000030C400DF2F8312031331
:100F58004908803AFF0080307F02031DB52F013019
:100F680048020318B82FB92FC52F00308312031376
:100F7800C7000030C6000030C5000030C400BD0105
:100F8800DF2F831203134808B8003808C300FF3066
:100F9800C405FF30C5057F30C6050030C705431CB2
:100FA800D62FD72FD82FC6174308B8000310380CF0
:100FB800B9003908C7003D08B8003808C704470811
:100FC800B3004608B2004508B1004408B000080064
:100FD80083120313EB01EC01ED01EE01EF01831322
:100FE800A0308400C2300A128A1556210A128A11CA
:100FF80083010A128A15702EFF1B0A2883137F1893
:1010080083170008840A0319FF0A080008308A00B9
:101018000408840A8207003450344F34543431347D
:10102800203450344F345434323420344434493426
:0A1038005334543441342E34003494
:1012AC0064008001840A04060319003404065729DB
:1012BC00831603139F131F129F12831203131F17FE
:1012CC009F13C3309F051F14080083120313871349
:1012DC001430F1007930F000F00B7229F10B722907
:1012EC0077298312031387170800803083120313A6
:1012FC00AB062F08F3002E08F2002D08F1002C0885
:10130C00F0002B08F7002A08F6002908F500280839
:10131C00F4000A128A11F3210A128A157308831237
:10132C000313AB007208AA007108A9007008A8008A
:10133C00080083120313A900A51FA529A629B62905
:10134C002D30FD00290884007D08831380000130B6
:10135C00FD007D08A907A409A509A40A0319A50A7B
:10136C002508F9002408F8002708FB002608FA00D5
:10137C0029080A128A1547230A128A150800DA2945
:10138C007408FF00730884000A128A1500200A12E0
:10139C008A150A128A1104200A128A150130F307E1
:1013AC000318F40A0030F407740883120313FF00C7
:1013BC00730884000A128A1500200A128A15003A52
:1013CC00031DE929EA29C6290800F800F401F501F2
:1013DC007008F200F3017208F6007308F700781C2D
:1013EC00F829F929FF297608F4070318F50A770874
:1013FC00F50701300310F60DF70DFF3E031D002A13
:10140C000310F80C7808031D0C2A0D2AF529750811
:10141C00F1007408F00008002730F600F530F500F4
:10142C00F50B162AF60B162A38300A128A15622288
:10143C000A128A150C300A128A1562220A128A15AF
:10144C0001300A128A1562220A128A1506300A1213
:10145C008A1562220A128A1580300A128A156222B3
:10146C000A128A150800FF3083120313880080309B
:10147C00F000700888058712071787132730F100D2
:10148C00F530F000F00B482AF10B482A83120313B5
:10149C00871780300806031D542A552A612A8713A2
:1014AC002730F100F530F000F00B5A2AF10B5A2AD4
:1014BC008312031387170800F400FF308312031301
:1014CC008800143088008030F2007208880587127A
:1014DC0007170A128A156B210A128A15803083129B
:1014EC0003130806031D7B2A7C2A812A0A128A15FB
:1014FC006B210A128A157408831203138800871251
:10150C0007130A128A156B210A128A150730F30089
:10151C007D30F200F20B902AF30B902A0800831610
:10152C0003130F088F3960388F008F110F118F1034
:10153C000F140330831603178800890103308316B8
:10154C00031385000430890087018801860183120A
:10155C000313850189018701880186010A128A1506
:10156C0012220A128A1501300A128A1562220A12F4
:10157C008A151A30F800F830F700F70BC32AF80B6D
:10158C00C32A00000800700871040319CE2ACF2A60
:10159C00FE2AF501F50ADD2A01300310F00DF10DDC
:1015AC00FF3E031DD32A0130F4007408F507F11F28
:1015BC00E02AE12AD22A71087302031DE72A700877
:1015CC007202031CEA2AEB2AF12A7008F202710853
:1015DC00031CF303F30201300310F10CF00CFF3E7B
:1015EC00031DF22A0130F502031DFD2AFE2AE12A11
:1015FC007308F1007208F0000800F501F60170089C
:10160C00710403190A2B0B2B422BF701F70A192B28
:10161C0001300310F00DF10DFF3E031D0F2B0130B7
:10162C00F4007408F707F11F1C2B1D2B0E2B013037
:10163C000310F50DF60DFF3E031D1E2B71087302F2
:10164C00031D2A2B70087202031C2D2B2E2B352BFD
:10165C007008F2027108031CF303F30275140130D5
:10166C000310F10CF00CFF3E031D362B0130F7027A
:10167C00031D412B422B1D2B7608F1007508F00041
:10168C00080083120313A3007908A1007808A000B6
:10169C007B08F1007A08F0002108F3002008F20022
:1016AC000A128A1503230A128A157108831203136E
:1016BC00A1007008A0000130FC007C08A3072008E2
:1016CC002104031D6A2B6B2B4E2B230884008313E0
:1016DC0080010130A3027B08F1007A08F000790840
:1016EC00F3007808F2000A128A15C9220A128A1528
:1016FC007008FC007C0883120313A2007B08F10025
:10170C007A08F0007908F3007808F2000A128A15BA
:10171C0003230A128A157108F9007008F8000A30C0
:10172C00831203132202031C9C2B9D2BA12B07302D
:10173C00FC007C08A2073030FC007C08A2072208C1
:10174C00FC00230884007C08831380000130A30272
:10175C0078087904031DB32BB42B712B0130FC00DA
:10176C007C08A30708000D3083120313E500FB303F
:10177C00E400E40BBF2BE50BBF2B831203139F1468
:10178C009F18C92BCA2BC62B1E08E4006408EF0057
:10179C004330CD007F30CC000030CB000030CA008D
:1017AC004030B300A030B2000030B1000030B000C7
:1017BC006F08E400E501E601E7016708F30066083D
:1017CC00F2006508F1006408F00001300A128A1575
:1017DC00AF240A128A15730883120313B700720818
:1017EC00B6007108B5007008B4000A128A118B2477
:1017FC000A128A15831203133308D1003208D00061
:10180C003108CF003008CE000A128A1116200A12B5
:10181C008A15831203134D0883160313A700831232
:10182C0003134C0883160313A600831203134B08EF
:10183C0083160313A500831203134A08831603139C
:10184C00A400073083120313E5007C30E400E40BA2
:10185C002D2CE50B2D2C0000080003108312031314
:10186C004C0D4D0DCE004E08D4005408031D3F2CDA
:10187C00402C492C0030CD000030CC000030CB0087
:10188C000030CA00AE2C4A08CE004B08CF004C08E2
:10189C00D0004D08D1001F300310D10CD00CCF0C50
:1018AC00CE0CFF3E031D522C4E08D2005208D30022
:1018BC00CC17FF30CA05FF30CB05FF30CC0500300C
:1018CC00CD059630D402D41F6C2C6D2C872C54086B
:1018DC00803A973E0318732C742C752C402C0130D5
:1018EC000310CD0CCC0CCB0CCA0CFF3E031D762C7C
:1018FC000130CE004E08D407031D852C862C752C88
:10190C009E2C20305402031C8C2C8D2C992C402C9A
:10191C000130CE000310CA0DCB0DCC0DCD0DCE0B6E
:10192C00902C0130D4025408031D9D2C9E2C8E2C1F
:10193C0053080319A22CA32CAE2CCA09CB09CC0931
:10194C00CD09CA0A0319CB0A0319CC0A0319CD0A0B
:10195C000800F80078080319B42CB52CC92CF31F17
:10196C00B82CB92CC92C7009FA007109FB0072094A
:10197C00FC007309FD00FA0A0319FB0A0319FC0A9F
:10198C000319FD0AD12C7308FD007208FC007108C4
:10199C00FB007008FA007308720471047004031DD4
:1019AC00D82CD92CE22C0030F3000030F20000309F
:1019BC00F1000030F000682D9630F4007408F90046
:1019CC00F42C0130F4007408F90701300310FD0CFD
:1019DC00FC0CFB0CFA0CFF3E031DEC2CFE307D05C1
:1019EC00031DF92CFA2CE72C162D0130F400740889
:1019FC00F9070130FA07003003180130FB070030FB
:101A0C0003180130FC07003003180130FD070130CA
:101A1C000310FD0CFC0CFB0CFA0CFF3E031D0E2DF1
:101A2C00FF307D05031D1B2D1C2DFB2C282D01309B
:101A3C00F9020130F4000310FA0DFB0DFC0DFD0D45
:101A4C00F40B212DFC1B2B2D2C2D322D0230790269
:101A5C000318312D322D1D2D7918352D362D3E2D97
:101A6C00FF30FA05FF30FB057F30FC05FF30FD052C
:101A7C000310F90C7908F400F501F601F7011830A0
:101A8C000310F40DF50DF60DF70DFF3E031D462D5D
:101A9C007408FA047508FB047608FC047708FD0446
:101AAC00780803195A2D5B2D602DF31F5E2D5F2DC9
:101ABC00602DFD177D08F3007C08F2007B08F10017
:101ACC007A08F0000800831203135808CD00570859
:101ADC00CC005608CB005508CA000A128A153324CC
:101AEC000A128A15831203134B08EE004A08ED0004
:101AFC005808AF005708AE005608AD005508AC00AA
:101B0C006D08F0006E08F1000030F11BFF30F200A0
:101B1C00F30001300A128A15AF240A128A157308D1
:101B2C0083120313AB007208AA007108A900700895
:101B3C00A8000A128A157B210A128A158312031334
:101B4C002B08B7002A08B6002908B5002808B400ED
:101B5C004130B3002030B2000030B1000030B00092
:101B6C000A128A118B240A128A1583120313330862
:101B7C00CD003208CC003108CB003008CA000A1264
:101B8C008A1533240A128A15831203134B08EC00AE
:101B9C004A08EB005808AF005708AE005608AD00D5
:101BAC005508AC006D08F0006E08F1000030F11B18
:101BBC00FF30F200F30001300A128A15AF240A122A
:101BCC008A15730883120313AB007208AA007108FC
:101BDC00A9007008A8000A128A157B210A128A151E
:101BEC00831203132B08B7002A08B6002908B50086
:101BFC002808B4004130B3002030B2000030B100EE
:101C0C000030B0000A128A118B240A128A15831232
:101C1C0003133308DC003208DB003108DA0030082B
:101C2C00D9005C08AF005B08AE005A08AD0059083B
:101C3C00AC006B08F0006C08F1000030F11BFF30B9
:101C4C00F200F30001300A128A15AF240A128A1529
:101C5C00730883120313AB007208AA007108A90061
:101C6C007008A8000A128A157B210A128A158312A1
:101C7C0003132B08B7002A08B6002908B50028085A
:101C8C00B4004130B3002030B2000030B10000305D
:101C9C00B0000A128A118B240A128A1583120313BC
:101CAC003308CD003208CC003108CB003008CA0014
:101CBC000A128A1533240A128A15831203134B084D
:101CCC0083160313A900831203134A088316031304
:101CDC00A80008000A128A1595220A128A150A12FF
:101CEC008A155E210A128A150130F3008030F40047
:101CFC000A128A15C5210A128A158312031385113B
:101D0C00C3309F05413083120313E900ED30E80026
:101D1C00E80B8E2EE90B8E2E932E0A128A15B92300
:101D2C000A128A1583160313270883120313D8008B
:101D3C0083160313260883120313D7008316031389
:101D4C00250883120313D600831603132408831269
:101D5C000313D5000A128A1569250A128A15073051
:101D6C0083120313E9007C30E800E80BBB2EE90B6F
:101D7C00BB2E0000C0300A128A1562220A128A1584
:101D8C00831203136E08A5006D08A4000A30A60088
:101D9C000030A700BA300A128A159F210A128A1540
:101DAC00831203136C08A5006B08A4000A30A6006C
:101DBC000030A700B2300A128A159F210A128A1528
:101DCC0083160313290883120313A5008316031328
:101DDC00280883120313A4000A30A6000030A700C1
:101DEC00AA300A128A159F210A128A15BA30F300FA
:101DFC000030F4000A128A15C5210A128A15C13066
:101E0C000A128A1562220A128A151030F3008030E9
:101E1C00F4000A128A15C5210A128A15C2300A1258
:101E2C008A1562220A128A15B230F3000030F400CF
:101E3C000A128A15C5210A128A15C3300A128A158C
:101E4C0062220A128A15AA30F3000030F4000A123A
:101E5C008A15C5210A128A15003083160313A700B0
:101E6C000030A6000030A5000030A400831203133C
:101E7C00EF018515C73083120313E800452FE80BDB
:101E8C00442F482F831203131F08C33904389F00B3
:101E9C00023083120313EA000430E900B930E80081
:101EAC00E80B562FE90B562FEA0B562F5D2F0A1213
:101EBC008A15B9230A128A1583160313270883126D
:101ECC000313D80083160313260883120313D700B9
:101EDC0083160313250883120313D60083160313EA
:101EEC00240883120313D5000A128A1569250A12D5
:101EFC008A15073083120313E9007C30E800E80BE5
:101F0C00852FE90B852F0000C5300A128A15622235
:101F1C000A128A15831203136E08A5006D08A4001B
:101F2C000A30A6000030A700BA300A128A159F2189
:101F3C000A128A15831203136C08A5006B08A400FF
:101F4C000A30A6000030A700B2300A128A159F2171
:101F5C000A128A1583160313290883120313A5008A
:101F6C0083160313280883120313A4000A30A60057
:101F7C000030A700AA300A128A159F210A128A156E
:101F8C00BA30F3000030F4000A128A15C5210A1287
:101F9C008A15C6300A128A1562220A128A15103066
:101FAC00F3008030F4000A128A15C5210A128A1532
:101FBC00C7300A128A1562220A128A15B230F3004F
:101FCC000030F4000A128A15C5210A128A15C8308D
:101FDC000A128A1562220A128A15AA30F3000030FE
:101FEC00F4000A128A15C5210A128A15702E0A12DB
:041FFC008A1100281E
:04400E00C420FF3F8C
:00000001FF
